:020000040800F2
:100000000000022009260008992400089F24000807
:10001000A5240008AB240008B1240008000000005B
:1000200000000000000000000000000071BA00089D
:10003000B724000800000000C1BC000829BD00086A
:100040005926000859260008592600085926000894
:100050005926000859260008592600085926000884
:100060005926000859260008592600085926000874
:10007000C524000859260008D9240008592600087C
:100080005926000859260008592600085926000854
:100090005926000859260008592600085926000844
:1000A00059260008ED2400085926000859260008A2
:1000B000012500085926000859260008592600087D
:1000C0005926000859260008592600085926000814
:1000D0005926000859260008592600081525000849
:1000E00059260008592600085926000859260008F4
:1000F00059260008592600085926000859260008E4
:1001000059260008592600085926000859260008D3
:1001100059260008592600085926000859260008C3
:10012000292500083D250008592600085926000801
:1001300059260008592600085926000859260008A3
:100140005926000859260008592600085926000893
:100150005926000851250008592600086525000881
:100160005926000859260008592600085926000873
:1001700059260008592600085926000800000000EA
:08018000592600085926000869
:1001900010B5054C237833B9044B13B10448AFF3C1
:1001A00000800123237010BDE0000020000000004B
:1001B0006CBD010808B5034B1BB103490348AFF3FD
:1001C000008008BD00000000E40000206CBD0108B4
:1001D000034613F8012B002AFBD1181A0138704787
:1001E00001F0FF01102A2BDB10F0070F08D010F8E8
:1001F000013B013A8B422DD010F0070F42B3F6D1EC
:10020000F0B441EA012141EA014122F007047FF004
:1002100000070023F0E80256083C85EA010586EA5B
:10022000010685FA47F5A3FA87F586FA47F6A5FA97
:1002300087F68EB9EED1F0BC01F0FF0102F00702A3
:1002400032B110F8013B013A83EA010313B1F8D14E
:100250000020704701387047002D06BF354603382F
:10026000073815F0010F07D1013015F4807F02BF68
:10027000013015F4C03F0130F0BC0138704700BFB9
:1002800081F0004102E000BF83F0004330B54FEA47
:1002900041044FEA430594EA050F08BF90EA020FB4
:1002A0001FBF54EA000C55EA020C7FEA645C7FEA47
:1002B000655C00F0E2804FEA5454D4EB5555B8BF6A
:1002C0006D420CDD2C4480EA020281EA030382EADB
:1002D000000083EA010180EA020281EA0303362D6D
:1002E00088BF30BD11F0004F4FEA01314FF4801C40
:1002F0004CEA113102D0404261EB410113F0004F52
:100300004FEA03334CEA133302D0524263EB430308
:1003100094EA050F00F0A780A4F10104D5F1200EA6
:100320000DDB02FA0EFC22FA05F2801841F1000101
:1003300003FA0EF2801843FA05F359410EE0A5F1D5
:1003400020050EF1200E012A03FA0EFC28BF4CF006
:10035000020C43FA05F3C01851EBE37101F00045BC
:1003600007D54FF0000EDCF1000C7EEB00006EEBC9
:100370000101B1F5801F1BD3B1F5001F0CD3490853
:100380005FEA30004FEA3C0C04F101044FEA4452AA
:1003900012F5800F80F09A80BCF1004F08BF5FEA31
:1003A000500C50F1000041EB045141EA050130BD11
:1003B0005FEA4C0C404141EB0101013C28BFB1F523
:1003C000801FE9D291F0000F04BF01460020B1FA6E
:1003D00081F308BF2033A3F10B03B3F120020CDA41
:1003E0000C3208DD02F1140CC2F10C0201FA0CF01F
:1003F00021FA02F10CE002F11402D8BFC2F1200C84
:1004000001FA02F120FA0CFCDCBF41EA0C01904039
:10041000E41AA2BF01EB0451294330BD6FEA040482
:100420001F3C1CDA0C340EDC04F11404C4F120026D
:1004300020FA04F001FA02F340EA030021FA04F37F
:1004400045EA030130BDC4F10C04C4F1200220FAD6
:1004500002F001FA04F340EA0300294630BD21FA14
:1004600004F0294630BD94F0000F83F4801306BFDA
:1004700081F480110134013D4EE77FEA645C18BFCE
:100480007FEA655C29D094EA050F08BF90EA020F65
:1004900005D054EA000C04BF1946104630BD91EA5D
:1004A000030F1EBF0021002030BD5FEA545C05D160
:1004B0004000494128BF41F0004130BD14F580049F
:1004C0003CBF01F5801130BD01F0004545F0FE4113
:1004D00041F470014FF0000030BD7FEA645C1ABF48
:1004E000194610467FEA655C1CBF0B46024650EA7F
:1004F000013406BF52EA033591EA030F41F40021AB
:1005000030BD00BF90F0000F04BF0021704730B530
:100510004FF4806404F132044FF000054FF0000105
:1005200050E700BF90F0000F04BF0021704730B5C6
:100530004FF4806404F1320410F0004548BF40429B
:100540004FF000013EE700BF42004FEAE2014FEAF0
:1005500031014FEA02701FBF12F07F4393F07F4FCB
:1005600081F06051704732F07F4208BF704793F0CE
:100570007F4F04BF41F40021704730B54FF46074E1
:1005800001F0004521F000411CE700BF50EA0102E4
:1005900008BF704730B54FF000050AE050EA01028D
:1005A00008BF704730B511F0004502D5404261EBFD
:1005B00041014FF4806404F132045FEA915C3FF43E
:1005C000D8AE4FF003025FEADC0C18BF03325FEADB
:1005D000DC0C18BF033202EBDC02C2F1200300FA8C
:1005E00003FC20FA02F001FA03FE40EA0E0021FAB1
:1005F00002F11444BDE600BF70B54FF0FF0C4CF49F
:10060000E06C1CEA11541DBF1CEA135594EA0C0F50
:1006100095EA0C0F00F0DEF82C4481EA030621EA8B
:100620004C5123EA4C5350EA013518BF52EA0335C6
:1006300041F4801143F4801338D0A0FB02CE4FF078
:100640000005E1FB02E506F00042E0FB03E54FF0A8
:100650000006E1FB03569CF0000F18BF4EF0010EA0
:10066000A4F1FF04B6F5007F64F5407404D25FEA9C
:100670004E0E6D4146EB060642EAC62141EA55514F
:100680004FEAC52040EA5E504FEACE2EB4F1FD0C91
:1006900088BFBCF5E06F1ED8BEF1004F08BF5FEA0F
:1006A000500E50F1000041EB045170BD06F00046C1
:1006B00046EA010140EA020081EA0301B4EB5C046E
:1006C000C2BFD4EB0C0541EA045170BD41F4801166
:1006D0004FF0000E013C00F3AB8014F1360FDEBF8B
:1006E000002001F0004170BDC4F10004203C35DA67
:1006F0000C341BDC04F11404C4F1200500FA05F3EA
:1007000020FA04F001FA05F240EA020001F000428A
:1007100021F0004110EBD37021FA04F642EB060100
:100720005EEA430E08BF20EAD37070BDC4F10C042A
:10073000C4F1200500FA04F320FA05F001FA04F2EE
:1007400040EA020001F0004110EBD37041F10001DA
:100750005EEA430E08BF20EAD37070BDC4F12005E5
:1007600000FA05F24EEA020E20FA04F301FA05F24D
:1007700043EA020321FA04F001F0004121FA04F2F5
:1007800020EA020000EBD3705EEA430E08BF20EAC5
:10079000D37070BD94F0000F0FD101F000464000FF
:1007A00041EB010111F4801F08BF013CF7D041EA81
:1007B000060195F0000F18BF704703F00046520085
:1007C00043EB030313F4801F08BF013DF7D043EA56
:1007D0000603704794EA0C0F0CEA135518BF95EA0C
:1007E0000C0F0CD050EA410618BF52EA4306D1D193
:1007F00081EA030101F000414FF0000070BD50EAB2
:10080000410606BF1046194652EA430619D094EA3B
:100810000C0F02D150EA013613D195EA0C0F05D125
:1008200052EA03361CBF104619460AD181EA030179
:1008300001F0004141F0FE4141F470014FF0000031
:1008400070BD41F0FE4141F4780170BD70B54FF0CC
:10085000FF0C4CF4E06C1CEA11541DBF1CEA13554C
:1008600094EA0C0F95EA0C0F00F0A7F8A4EB05042E
:1008700081EA030E52EA03354FEA013100F0888025
:100880004FEA03334FF0805545EA131343EA1263EE
:100890004FEA022245EA111545EA10654FEA0026A3
:1008A0000EF000419D4208BF964244F1FD0404F55C
:1008B000407402D25B084FEA3202B61A65EB0305B8
:1008C0005B084FEA32024FF480104FF4002CB6EB75
:1008D000020E75EB030E22BFB61A754640EA0C00F5
:1008E0005B084FEA3202B6EB020E75EB030E22BF35
:1008F000B61A754640EA5C005B084FEA3202B6EB76
:10090000020E75EB030E22BFB61A754640EA9C0034
:100910005B084FEA3202B6EB020E75EB030E22BF04
:10092000B61A754640EADC0055EA060E18D04FEAC2
:10093000051545EA16754FEA06164FEAC30343EA62
:1009400052734FEAC2025FEA1C1CC0D111F4801F2F
:100950000BD141EA00014FF000004FF0004CB6E728
:1009600011F4801F04BF01430020B4F1FD0C88BFC7
:10097000BCF5E06F3FF6AFAEB5EB030C04BFB6EBD2
:10098000020C5FEA500C50F1000041EB045170BDC5
:100990000EF0004E4EEA113114EB5C04C2BFD4EBF2
:1009A0000C0541EA045170BD41F480114FF0000E76
:1009B000013C90E645EA060E8DE60CEA135594EAF2
:1009C0000C0F08BF95EA0C0F3FF43BAF94EA0C0FF5
:1009D0000AD150EA01347FF434AF95EA0C0F7FF46A
:1009E00025AF104619462CE795EA0C0F06D152EABE
:1009F00003353FF4FDAE1046194622E750EA4106A2
:100A000018BF52EA43067FF4C5AE50EA41047FF4B2
:100A10000DAF52EA43057FF4EBAE12E74FF0FF3C17
:100A200006E000BF4FF0010C02E000BF4FF0010CE8
:100A30004DF804CD4FEA410C7FEA6C5C4FEA430C61
:100A400018BF7FEA6C5C1BD001B050EA410C0CBFB0
:100A500052EA430C91EA030F02BF90EA020F002012
:100A6000704710F1000F91EA030F58BF994208BF79
:100A700090422CBFD8176FEAE37040F00100704736
:100A80004FEA410C7FEA6C5C02D150EA013C07D18D
:100A90004FEA430C7FEA6C5CD6D152EA033CD3D0D8
:100AA0005DF8040B704700BF8446104662468C46D2
:100AB0001946634600E000BF01B5FFF7B7FF002805
:100AC00048BF10F1000F01BD4DF808EDFFF7F4FF2E
:100AD0000CBF012000205DF808FB00BF4DF808EDB9
:100AE000FFF7EAFF34BF012000205DF808FB00BFDC
:100AF0004DF808EDFFF7E0FF94BF012000205DF8FE
:100B000008FB00BF4DF808EDFFF7CEFF94BF0120B2
:100B100000205DF808FB00BF4DF808EDFFF7C4FFAB
:100B200034BF012000205DF808FB00BF4FEA410CF4
:100B30007FEA6C5C02D150EA013C0AD14FEA430CD7
:100B40007FEA6C5C02D152EA033C02D14FF0000014
:100B500070474FF00100704753B94AB9002908BFE8
:100B600000281CBF4FF0FF314FF0FF3000F06EB98E
:100B7000ADF1080C6DE904CE00F006F8DDF804E0F4
:100B8000DDE9022304B070472DE9F047089D0446D3
:100B90008C46002B40F083808A42174647D9B2FA30
:100BA00082F242B1C2F1200024FA00F09140974055
:100BB00040EA010C94404FEA1748230CBCFBF8F6BE
:100BC0001FFA87FE08FB16C143EA014306FB0EF13C
:100BD000994209D9FB1806F1FF3080F0198199423A
:100BE00040F21681023E3B445B1AA4B2B3FBF8F01C
:100BF00008FB103344EA034400FB0EFEA64509D966
:100C00003C1900F1FF3380F00581A64540F20281D6
:100C100002383C4440EA0640A4EB0E0400261DB115
:100C2000D4400023C5E900433146BDE8F08702B94E
:100C3000FFDEB2FA82F2002A50D1CB1B4FEA174EE8
:100C40001FFA87F80126B3FBFEFC210C0EFB1C33B8
:100C500041EA034108FB0CF38B4207D979180CF1E8
:100C6000FF3002D28B4200F2E9808446C91AA3B257
:100C7000B1FBFEF00EFB101143EA014408FB00F843
:100C8000A04507D93C1900F1FF3302D2A04500F27C
:100C9000D9801846A4EB080440EA0C40BFE78B4219
:100CA00009D9002D00F0B1800026C5E900013046C9
:100CB0003146BDE8F087B3FA83F6002E4AD18B4265
:100CC00002D3824200F2B880841A61EB0301012052
:100CD0008C46002DA8D0C5E9004CA5E7C2F1200341
:100CE00020FA03F6974001FA02F04FEA174ED94076
:100CF0003043030CB1FBFEF61FFA87F80EFB16110A
:100D000043EA014306FB08F1994204FA02F409D9C7
:100D1000FB1806F1FF3C80F08D80994240F28A80FA
:100D2000023E3B445B1A81B2B3FBFEF00EFB103374
:100D300041EA034100FB08F38B4207D9791800F11F
:100D4000FF3C73D28B4271D902383944CB1A40EA46
:100D5000064678E7C6F1200C03FA06F422FA0CF3F3
:100D60001C4320FA0CF701FA06F34FEA144E21FA5D
:100D70000CF11F433B0CB1FBFEF91FFA84F80EFB8C
:100D8000191143EA014109FB08FA8A4502FA06F201
:100D900000FA06F308D9611809F1FF3048D28A45F4
:100DA00046D9A9F102092144A1EB0A01BFB2B1FB66
:100DB000FEF00EFB101147EA014700FB08F8B845AA
:100DC00007D9E71900F1FF312ED2B8452CD90238E6
:100DD000274440EA0940A7EB0807A0FB02894F45DA
:100DE000C64649461AD317D05DB1B3EB0E0267EB86
:100DF000010707FA0CFCF2404CEA0202F740C5E991
:100E0000002700263146BDE8F0872E4628460BE72E
:100E10000646E9E61846FDE64345E5D2B8EB020E84
:100E200069EB04010138DFE70846D2E760468DE749
:100E30008146B9E7664675E730464AE7ACF1020CF1
:100E4000394413E702383C4424E700BF704700BF31
:100E500080B485B000AFF860B9607A60FB68074A7B
:100E60001A60BB68064A1A607B6880221A6000BF5D
:100E70001437BD465DF8047B704700BFFC000020BE
:100E8000B001002080B485B000AFF860B9607A602E
:100E9000FB68074A1A60BB68064A1A607B684FF411
:100EA00080721A6000BF1437BD465DF8047B70473E
:100EB000B00300206404002080B400AFBFF34F8F64
:100EC00000BF064BDB6803F4E0620449044B1343A4
:100ED000CB60BFF34F8F00BF00BFFDE700ED00E028
:100EE0000400FA0580B582B000AF78607B681B68AB
:100EF000104A934204D1104B1B68184607F012FEAB
:100F00007B681B680D4A93420FD10D4B1B68184636
:100F100007F008FE00224FF480610A4802F0A0FFAB
:100F200001220949094806F037FB00BF0837BD46D2
:100F300080BD00BF004800409C9D0020001401407F
:100F4000D89A0020001802408C970020009D0020B5
:100F500080B582B000AF78607B681B68214A9342FD
:100F600019D1214B1B785A1CD1B21F4A11701A4655
:100F70001E4B19781E4B99541E4B1B681B4A127846
:100F800011464FF4FA62184607F02AFE012217496B
:100F9000194806F001FB7B681B68184A93421CD174
:100FA000174B1B7803F07F03DAB2154B1A70154B01
:100FB0001B785A1CD1B2134A11701A46104B19787B
:100FC000114B995400224FF48061104802F048FF01
:100FD00001220B490E4806F0DFFA00BF0837BD4674
:100FE00080BD00BF0048004064080020FC9A00203B
:100FF000009C0020E88200203C8200200014014078
:101000008C970020650800204C99002000180240B1
:10101000009D002080B483B000AF78607B681B68BF
:101020003D4A934271D13D4B1B683D4A128813449F
:101030003A4A1360394B5B68394A52881344374A3D
:101040005360364B9B68364A92881344334A936008
:10105000344B1B889BB201339AB2324B1A80314B0E
:101060001B889BB2632B50D92E4B00221A802B4B2E
:101070001B682D4AA2FB03235B092C4A1360274BF4
:101080005B68294AA2FB03235B09294A1360234BAF
:101090009B68254AA2FB03235B09264A13601F4B6A
:1010A00000221A601D4B00225A601C4B00229A60DD
:1010B0001E4B1B6840F2145202FB03F21E4BA3FBB3
:1010C0000213D21A52081344DB0A1C4A1360184B4D
:1010D0001B6840F2145202FB03F2174BA3FB0213EE
:1010E000D21A52081344DB0A154A1360114B1B68CD
:1010F00040F2145202FB03F20F4BA3FB0213D21A6D
:1011000052081344DB0A0F4A136000BF0C37BD4678
:101110005DF8047B704700BF002001406808002094
:10112000489E0020740800201F85EB51989D0020E8
:1011300070970020DC9A002001011000EC9600203E
:10114000FC9B002040990020B0B5D8B000AF01F062
:1011500085FA00F0BDF900F035FC00F0C3FA00F0AC
:10116000E3FB00F0D9FA00F009FB00F089FB00F086
:10117000B1FB00F01BFA00F037FB00F085FA15F028
:101180003DFE322001F0ACFA15F044FEAD4B1B6F72
:1011900003F00203002B02D015F048FE01E015F029
:1011A00051FEA94B1B78A94A1178A94A184618F094
:1011B000D8FE18F08FFE0023C7F858310023C7F877
:1011C0005C3107F5AC73184607F090FB0346A14A63
:1011D00013600023C7F850310023C7F8543107F5D6
:1011E000A873184607F082FB03469B4A136000234E
:1011F000C7F848310023C7F84C3107F5A473012123
:10120000184607F00FFC0346944A13600023C7F802
:1012100040310023C7F8443107F5A0730121184677
:1012200007F000FC03468E4A13600023C7F83831EC
:101230000023C7F83C3107F59C730121184607F0DD
:10124000F1FB0346874A13600023C7F830310023BF
:10125000C7F8343107F598730121184607F0E2FB0F
:101260000346814A1360814BC7F828310023C7F831
:101270002C3107F5947300220021184607F082FAFA
:1012800003467B4A13607B4BC7F820310023C7F825
:10129000243107F5907300220021184607F072FAF6
:1012A0000346754A1360754B07F588740FCB84E8C5
:1012B0000F0007F588730021184607F069FC034604
:1012C0006F4A13606D4B07F580740FCB84E80F00F5
:1012D00007F580730021184607F05AFC0346694A57
:1012E0001360694B07F1E4041D460FCD0FC495E868
:1012F000070084E8070007F1E4030021184607F01F
:10130000E0F90346614A1360614B07F1C8041D46CA
:101310000FCD0FC495E8070084E8070007F1C80364
:101320000021184607F0CDF903465A4A13605A4B7C
:1013300007F1AC041D460FCD0FC495E8070084E803
:10134000070007F1AC030021184607F0BAF903467D
:10135000524A1360524B07F190041D460FCD0FC443
:1013600095E8070084E8070007F19003002118467C
:1013700007F0A7F903464B4A13604B4B07F174047F
:101380001D460FCD0FC495E8070084E8070007F15C
:1013900074030021184607F094F90346434A13608A
:1013A00007F15803424A1C4615460FCD0FC495E875
:1013B000070084E8070007F158030021184607F0EA
:1013C00080F903463B4A136007F13C033A4A1C4646
:1013D00015460FCD0FC495E8070084E8070007F114
:1013E0003C030021184607F06CF90346334A1360AA
:1013F00007F12003324A1C4615460FCD0FC495E86D
:10140000070084E8070007F120030021184607F0D1
:1014100058F903462B4A13603B1D2B4A1C461546C0
:101420000FCD0FC495E8070084E807003B1D00219D
:10143000184607F046F90346244A136007F03AF9C4
:10144000FEE700BF003802407608002000000020C0
:10145000FC960020F8960020F89A00209C9D002021
:10146000B49D0020D89A00204C9A0020111D00083D
:10147000F0960020311D00080097002008BE0108EA
:10148000E8820020D882002018BE010818810020C0
:1014900034BE01084899002050BE0108449900203C
:1014A0006CBE01087497002088BE01086C9700206C
:1014B000A4BE0108D4820020C0BE0108F49600201A
:1014C000DCBE010864970020F8BE0108D48100202A
:1014D00080B594B000AF07F12003302200211846F8
:1014E00018F0E8FF07F10C0300221A605A609A60B6
:1014F000DA601A610023BB602A4B1B6C294A43F057
:1015000080531364274B1B6C03F08053BB60BB6894
:1015100000237B60244B1B68234A43F48043136001
:10152000214B1B6803F480437B607B680D233B6287
:101530004FF480337B620123BB6201237B63022370
:10154000BB634FF48003FB6319233B644FF4A87320
:101550007B640223BB640423FB6407F12003184669
:1015600003F0CAFC0346002B01D000F037FC0F2328
:10157000FB6002233B6100237B614FF4A053BB61FE
:101580004FF48053FB6107F10C030521184603F06B
:101590002BFF0346002B01D000F020FC00BF50378A
:1015A000BD4680BD003802400070004080B584B068
:1015B00000AF3B4600221A605A609A60DA602F4BF7
:1015C0002F4A1A602D4B4FF480325A602B4B002269
:1015D0009A602A4B01221A61284B00221A76274B67
:1015E000002283F82020254B0022DA62234B254A73
:1015F0009A62224B0022DA60204B0322DA611F4BF1
:10160000002283F830201D4B01225A611B4801F053
:101610008BF80346002B01D000F0E0FB0A233B606F
:1016200001237B600123BB603B461946134801F050
:10163000E3F90346002B01D000F0D0FB0C233B6004
:1016400002237B603B4619460C4801F0D5F903465E
:10165000002B01D000F0C2FB0D233B6003237B6015
:101660003B461946054801F0C7F90346002B01D057
:1016700000F0B4FB00BF1037BD4680BDEC980020E1
:10168000002001400100000F80B500AF134B144A49
:101690001A60124B4FF47A725A60104B00229A6013
:1016A0000E4B0022DA600D4B4FF480421A610B4B57
:1016B00000225A61094B00229A61084B0022DA612C
:1016C000064B00221A62054802F0FEFB0346002B7F
:1016D00001D000F083FB00BF80BD00BF80820020EE
:1016E0000054004080B500AF094B0A4A1A60084B0D
:1016F00003225A60064B4FF47A629A60044803F062
:10170000A8FB0346002B01D000F068FB00BF80BDA2
:10171000DC8200200030004080B586B000AF3B1D69
:1017200000221A605A609A60DA601A6100233B60F6
:10173000104B114A1A600F4B00225A600D4B7F224A
:101740009A600C4BFF22DA600A4B00221A61094BA7
:1017500000225A61074B00229A61064804F028F9DA
:101760000346002B01D000F039FB00BF1837BD46FF
:1017700080BD00BFB49A00200028004080B500AFB3
:10178000174B184A1A60164B4FF482725A60144B6A
:1017900000229A60124B0022DA60114B00221A617B
:1017A0000F4B00225A610E4B4FF400729A610C4BA2
:1017B0002022DA610A4B00221A62094B00225A6287
:1017C000074B00229A62064B0A22DA62044804F0B0
:1017D000EDFB0346002B01D000F000FB00BF80BDF5
:1017E0007C8100200038004080B586B000AF07F152
:1017F000080300221A605A609A60DA603B460022B1
:101800001A605A601D4B4FF080421A601B4B002239
:101810005A601A4B00229A60184B42F2D002DA60EA
:10182000164B00221A61154B00229A61134805F0ED
:1018300065F90346002B01D000F0D0FA4FF4805335
:10184000BB6007F1080319460C4805F01FFB03466F
:10185000002B01D000F0C2FA00233B6000237B6024
:101860003B461946054805F03BFD0346002B01D0D9
:1018700000F0B4FA00BF1837BD4680BD449D00207B
:1018800080B500AF114B124A1A60104B4FF416523C
:101890005A600E4B00229A600C4B0022DA600B4B10
:1018A00000221A61094B0C225A61084B00229A61EE
:1018B000064B0022DA61054805F0A2FD0346002B25
:1018C00001D000F08BFA00BF80BD00BF3C82002039
:1018D0000048004080B500AF114B124A1A60104B0F
:1018E0004FF416525A600E4B00229A600C4B0022A5
:1018F000DA600B4B4FF480621A61094B0C225A617B
:10190000074B00229A61064B0022DA61044805F079
:1019100077FD0346002B01D000F060FA00BF80BDC8
:10192000009D00200014014080B582B000AF00236C
:101930007B60234B1B6B224A43F400131363204B41
:101940001B6B03F400137B607B6800233B601C4B24
:101950001B6B1B4A43F480031363194B1B6B03F48B
:1019600080033B603B68002205210C2001F09CFBBA
:101970000C2001F0B5FB002205210E2001F094FBA4
:101980000E2001F0ADFB00220521382001F08CFB78
:10199000382001F0A5FB00220521392001F084FB4D
:1019A000392001F09DFB00220521452001F07CFB40
:1019B000452001F095FB00BF0837BD4680BD00BF44
:1019C0000038024080B58EB000AF07F1240300223A
:1019D0001A605A609A60DA601A6100233B62B34B66
:1019E0001B6BB24A43F010031363B04B1B6B03F045
:1019F00010033B623B6A0023FB61AC4B1B6BAB4AA1
:101A000043F480731363A94B1B6B03F48073FB6176
:101A1000FB690023BB61A54B1B6BA44A43F0040385
:101A20001363A24B1B6B03F00403BB61BB69002370
:101A30007B619E4B1B6B9D4A43F0200313639B4BC2
:101A40001B6B03F020037B617B6900233B61974B99
:101A50001B6B964A43F080031363944B1B6B03F09C
:101A600080033B613B690023FB60904B1B6B8F4AFB
:101A700043F0010313638D4B1B6B03F00103FB6009
:101A8000FB680023BB60894B1B6B884A43F0020351
:101A90001363864B1B6B03F00203BB60BB68002320
:101AA0007B60824B1B6B814A43F0400313637F4B87
:101AB0001B6B03F040037B607B6800233B607B4B28
:101AC0001B6B7A4A43F008031363784B1B6B03F0DC
:101AD00008033B603B6800224021754802F0C0F9D2
:101AE00000224FF48071734802F0BAF900224FF4DB
:101AF0000051714802F0B4F901224FF440616D4881
:101B000002F0AEF9012238216C4802F0A9F9012255
:101B100001216B4802F0A4F9012248F20C01694846
:101B200002F09EF900226021664802F099F9002235
:101B30002821634802F094F900224FF4C051624812
:101B400002F08EF900224FF48061604802F088F9BB
:101B500040237B620123BB620023FB6200233B63C3
:101B600007F124031946524801F0CAFE4FF45063AE
:101B70007B620123BB620023FB6200233B6307F10E
:101B8000240319464B4801F0BBFE4FF400537B621F
:101B90000123BB620023FB6200233B6307F12403A4
:101BA0001946454801F0ACFE38237B620123BB6235
:101BB0000023FB6200233B6307F1240319463F48DF
:101BC00001F09EFE29237B620123BB620023FB629E
:101BD00000233B6307F124031946394801F090FEC6
:101BE00048F26C037B620123BB620023FB6200238B
:101BF0003B6307F124031946324801F081FE1023AC
:101C00007B620023BB620023FB6207F124031946B9
:101C10002C4801F075FE04237B620023BB62002385
:101C2000FB6207F124031946294801F069FE4FF4CD
:101C300078437B620023BB620023FB6207F124032D
:101C400019461E4801F05CFE03237B620023BB6241
:101C50000023FB6207F1240319461C4801F050FEE3
:101C60004FF4C0537B620123BB620223FB6200235B
:101C70003B6307F124031946134801F041FE4FF47A
:101C800080637B620123BB620223FB6200233B6310
:101C900007F1240319460D4801F032FEC0237B6290
:101CA0000223BB620023FB62032313E000380240DF
:101CB00000100240002002400008024000140240D0
:101CC00000000240001C0240000C024000180240CC
:101CD000000402403B6307237B6307F1240319469A
:101CE000094801F00DFE01237B620023BB62012342
:101CF000FB6207F124031946044801F001FE00BF0E
:101D00003837BD4680BD00BF0004024000100240CD
:101D100080B483B000AF7860044B00221A7000BF1B
:101D20000C37BD465DF8047B704700BF509A002019
:101D300080B582B000AF786015F0DCF9054B1B6808
:101D40004EF66021184606F051FD00BF0837BD462B
:101D500080BD00BF0097002080B582B000AF7860E2
:101D60000A4B1B684FF0FF31184606F0D7FD0848B4
:101D700003F0B1F815F072F8044B1B68184606F032
:101D80001BFE4FF47A7006F0E8FCE9E7F89A0020B1
:101D9000DC82002080B582B000AF78607B681B6871
:101DA0000A4A934201D100F07BFC7B681B68B3F1C7
:101DB000804F07D1064804F0F1FE0322054906488A
:101DC00000F0F6FC00BF0837BD4680BD00000140B2
:101DD000449D0020489E0020EC98002080B500AF74
:101DE000FFF76AF880B582B000AF00237B60124B2A
:101DF0005B6C114A43F4804353640F4B5B6C03F4F8
:101E000080437B607B6800233B600B4B1B6C0A4A62
:101E100043F080531364084B1B6C03F080533B600A
:101E20003B6800220F216FF0010001F03DF900BF77
:101E30000837BD4680BD00BF0038024080B58AB07B
:101E400000AF786007F1140300221A605A609A60AC
:101E5000DA601A617B681B682E4A934256D10023D0
:101E60003B612D4B5B6C2C4A43F4807353642A4BCB
:101E70005B6C03F480733B613B690023FB60264B82
:101E80001B6B254A43F004031363234B1B6B03F0C6
:101E90000403FB60FB680D237B610323BB6100230C
:101EA000FB6107F1140319461C4801F029FD1C4B86
:101EB0001C4A1A601A4B00225A60194B00229A6081
:101EC000174B0022DA60164B4FF480621A61144BF4
:101ED0004FF400625A61124B4FF400529A61104B5A
:101EE0000022DA610E4B00221A620D4B00225A6268
:101EF0000B4801F003F90346002B01D0FFF76EFFFA
:101F00007B68074A9A63064A7B68936300BF283759
:101F1000BD4680BD0020014000380240000802405C
:101F2000549A00201064024080B58AB000AF7860F7
:101F300007F1140300221A605A609A60DA601A618D
:101F40007B681B68194A93422CD100233B61184BD4
:101F50001B6B174A43F002031363154B1B6B03F013
:101F600002033B613B694FF440737B611223BB6109
:101F70000023FB6103233B6204237B6207F114030C
:101F800019460C4801F0BCFC0023FB60084B1B6C9D
:101F9000074A43F400131364054B1B6C03F400134E
:101FA000FB60FB6800BF2837BD4680BD0054004081
:101FB000003802400004024080B582B000AF786073
:101FC0007B681B680B4A93420FD10B4B1B6C0A4A70
:101FD00023F4001313644FF48071084801F02CFEC1
:101FE0004FF40071054801F027FE00BF0837BD46D9
:101FF00080BD00BF00540040003802400004024091
:1020000080B586B000AF786007F1080300221A603F
:102010005A609A60DA607B681B680C4A934211D15F
:102020000223BB604FF480737B6107F108031846FD
:1020300003F0DCFB0346002B01D0FFF7CFFE044B7F
:1020400001221A6000BF1837BD4680BD002800403D
:102050003C0E474280B58AB000AF786007F11403A8
:1020600000221A605A609A60DA601A617B681B6805
:10207000194A93422BD100233B61184B1B6C174A22
:1020800043F480431364154B1B6C03F480433B61A2
:102090003B690023FB60114B1B6B104A43F48073B8
:1020A00013630E4B1B6B03F48073FB60FB680E2302
:1020B0007B610223BB610023FB6103233B62052399
:1020C0007B6207F114031946054801F019FC00BFB3
:1020D0002837BD4680BD00BF0038004000380240B0
:1020E0000020024080B584B000AF78607B681B6838
:1020F000B3F1804F15D10023FB600C4B1B6C0B4AD6
:1021000043F001031364094B1B6C03F00103FB60F4
:10211000FB68002205211C2000F0C6FF1C2000F0F7
:10212000DFFF00BF1037BD4680BD00BF0038024052
:1021300080B58CB000AF786007F11C0300221A60F4
:102140005A609A60DA601A617B681B68984A934209
:1021500040F092800023BB61964B1B6C954A43F480
:1021600080231364934B1B6C03F48023BB61BB6916
:1021700000237B618F4B1B6B8E4A43F0020313637A
:102180008C4B1B6B03F002037B617B694FF4406354
:10219000FB6102233B6200237B620323BB620723B4
:1021A000FB6207F11C031946834801F0A9FB834B2E
:1021B000834A1A60814B4FF000625A607F4B402285
:1021C0009A607E4B0022DA607C4B4FF480621A6189
:1021D0007A4B00225A61794B00229A61774B002298
:1021E000DA61764B00221A62744B00225A627348FD
:1021F00000F084FF0346002B01D0FFF7EFFD7B6862
:102200006E4A5A636D4A7B6893636E4B6E4A1A60DE
:102210006C4B4FF000625A606A4B00229A60694B27
:102220000022DA60674B4FF480621A61654B00222E
:102230005A61644B00229A61624B0022DA61614B61
:1022400000221A625F4B00225A625E4800F056FF7D
:102250000346002B01D0FFF7C1FD7B68594A9A6302
:10226000584A7B68936300220521272000F01CFF59
:10227000272000F035FF96E07B681B68534A9342A5
:1022800040F0918000233B614A4B5B6C494A43F02C
:1022900020035364474B5B6C03F020033B613B69B5
:1022A0000023FB60434B1B6B424A43F04003136324
:1022B000404B1B6B03F04003FB60FB684FF484430F
:1022C000FB6102233B6200237B620323BB62082382
:1022D000FB6207F11C0319463D4801F011FB3D4B21
:1022E0003D4A1A603B4B4FF020625A60394B402206
:1022F0009A60384B0022DA60364B4FF480621A61E4
:10230000344B00225A61334B00229A61314B002238
:10231000DA61304B00221A622E4B00225A622D489D
:1023200000F0ECFE0346002B01D0FFF757FD7B6861
:10233000284A5A63274A7B689363284B284A1A60C5
:10234000264B4FF020625A60244B00229A60234BA8
:102350000022DA60214B4FF480621A611F4B002289
:102360005A611E4B00229A611C4B0022DA611B4B02
:1023700000221A62194B00225A62184800F0BEFE71
:102380000346002B01D0FFF729FD7B68134A9A63AF
:10239000124A7B68936300220521472000F084FEE7
:1023A000472000F09DFE00BF3037BD4680BD00BF16
:1023B000004800400038024000040240049700201A
:1023C00058600240D881002028600240001401407B
:1023D000001802408C980020A06402401C8100205C
:1023E0002864024080B58CB000AF78600023FB62A7
:1023F0000023BB6200227968192000F055FE1920E5
:1024000000F06EFE0023FB601F4B5B6C1E4A43F026
:10241000010353641C4B5B6C03F00103FB60FB681E
:1024200007F1100207F114031146184603F0ACF946
:1024300003F096F903465B00FB62FB6A134AA2FBBA
:1024400003239B0C013BBB62114B124A1A60104BD9
:1024500040F2E732DA600E4ABB6A53600C4B00224E
:102460001A610B4B00229A60094804F047FB0346AF
:10247000002B04D1064804F091FB034600E0012341
:1024800018463037BD4680BD0038024083DE1B430E
:10249000B89D00200000014080B400AFFEE780B48A
:1024A00000AFFEE780B400AFFEE780B400AFFEE708
:1024B00080B400AFFEE780B400AF00BFBD465DF85A
:1024C000047B704780B500AF024800F0AFFF00BF4B
:1024D00080BD00BFD881002080B500AF024800F069
:1024E000A5FF00BF80BD00BF0497002080B500AFEE
:1024F000024804F0C3FB00BF80BD00BFB89D0020B0
:1025000080B500AF024804F0B9FB00BF80BD00BF3A
:10251000449D002080B500AF024805F06DF800BF73
:1025200080BD00BF3C82002080B500AF024800F0B3
:102530007DFF00BF80BD00BF549A002080B500AF72
:10254000024800F073FF00BF80BD00BF1C81002067
:1025500080B500AF024800F069FF00BF80BD00BF3A
:102560008C98002080B500AF024805F045F800BF08
:1025700080BD00BF009D002080B586B000AF7860B0
:10258000144A154BD31A7B617B693B61134B1B6863
:10259000002B02D1114B124A1A60104B1A687B684B
:1025A00013443A699A4207D217F04AFF03460C22B5
:1025B0001A604FF0FF3309E0084B1B68FB60074BC4
:1025C0001A687B681344054A1360FB68184618377D
:1025D000BD4680BD000002200004000078080020F5
:1025E000B0A2002080B400AF064BD3F88830054A73
:1025F00043F47003C2F8883000BFBD465DF8047B29
:10260000704700BF00ED00E0DFF834D00D480E4900
:102610000E4A002302E0D458C4500433C4188C423C
:10262000F9D30B4A0B4C002301E013600432A242A1
:10263000FBD3FFF7D7FF17F009FFFEF785FD7047C3
:102640000000022000000020DC00002078C4010807
:10265000E0000020ACA20020FEE7000080B500AF43
:102660000E4B1B680D4A43F4007313600B4B1B6841
:102670000A4A43F480631360084B1B68074A43F41B
:1026800080731360032000F004FD0F20FFF7AAFE03
:10269000FFF7A8FB0023184680BD00BF003C0240A6
:1026A00080B400AF064B1B781A46064B1B681344D8
:1026B000044A136000BFBD465DF8047B704700BF4D
:1026C0000C000020009E002080B400AF034B1B686C
:1026D0001846BD465DF8047B704700BF009E002091
:1026E00080B584B000AF7860FFF7EEFFB8607B681C
:1026F000FB60FB68B3F1FF3F05D00A4B1B781A461D
:10270000FB681344FB6000BFFFF7DEFF0246BB68B7
:10271000D31AFA689A42F7D800BF00BF1037BD46F7
:1027200080BD00BF0C00002080B584B000AF786091
:102730000023FB737B68002B01D1012333E07B680E
:102740001B6C002B09D17868FFF778FB7B680022AF
:102750005A647B68002283F83C207B681B6C03F082
:102760001003002B18D17B681B6C23F4885323F0D3
:10277000020343F002027B681A64786800F05EFA94
:102780007B6800225A647B681B6C23F0030343F0D0
:1027900001027B681A6401E00123FB737B6800225D
:1027A00083F83C20FB7B18461037BD4680BD0000F7
:1027B00080B586B000AFF860B9607A6000233B61F5
:1027C000FB6893F83C30012B01D10223E9E0FB6860
:1027D000012283F83C20FB681B689B6803F001031F
:1027E000012B18D0FB681B689A68FB681B6842F0D5
:1027F00001029A606D4B1B686D4AA2FB03239A0C81
:1028000013465B0013443B6102E03B69013B3B61C3
:102810003B69002BF9D1FB681B689B6803F480734C
:10282000B3F5807F07D1FB681B689A68FB681B685B
:1028300022F480729A60FB681B689B6803F00103B6
:10284000012B40F0A180FB681B6C23F4E06323F0B4
:10285000010343F48072FB681A64FB681B685B68C1
:1028600003F48063002B07D0FB681B6C23F44053F8
:1028700043F48052FB681A64FB681B6C03F48053BA
:10288000B3F5805F06D1FB685B6C23F00602FB6842
:102890005A6402E0FB6800225A64FB68002283F855
:1028A0003C20444B7B61FB689B6B434ADA63FB68CB
:1028B0009B6B424A1A64FB689B6B414ADA64FB6873
:1028C0001B686FF022021A60FB681B685A68FB687D
:1028D0001B6842F080625A60FB681B689A68FB685C
:1028E0001B6842F480729A60FB68986BFB681B68F7
:1028F0004C331946BA687B6800F0AEFC7B695B68B4
:1029000003F01F03002B2AD1FB681B682D4A93425A
:1029100015D0FB681B682C4A934205D1254B5B6898
:1029200003F01F03002B0AD0FB681B68274A934261
:1029300036D1204B5B6803F01003002B30D1FB68CD
:102940001B689B6803F04053002B29D1FB681B6870
:102950009A68FB681B6842F080429A6020E0FB683E
:102960001B68184A93421BD1FB681B689B6803F0E5
:102970004053002B14D1FB681B689A68FB681B68E6
:1029800042F080429A600BE0FB681B6C43F010023F
:10299000FB681A64FB685B6C43F00102FB685A64D5
:1029A000002318461837BD4680BD00BF0400002034
:1029B00083DE1B4300230140352E0008EF2E000864
:1029C0000B2F00080020014000210140002201409F
:1029D00080B483B000AF786000BF0C37BD465DF8AF
:1029E000047B704780B483B000AF786000BF0C37C1
:1029F000BD465DF8047B704780B485B000AF786059
:102A000039600023BB607B6893F83C30012B01D117
:102A1000022305E17B68012283F83C203B681B68A8
:102A2000092B25D97B681B68D9683B681B689BB25A
:102A30001A4613465B0013441E3B072202FA03F3B7
:102A4000DA437B681B680A40DA607B681B68D968D8
:102A50003B689A683B681B689BB2184603465B005C
:102A600003441E3B9A407B681B680A43DA6022E0FD
:102A70007B681B6819693B681B689BB21A46134642
:102A80005B001344072202FA03F3DA437B681B68F6
:102A90000A401A617B681B6819693B689A683B6841
:102AA0001B689BB2184603465B0003449A407B6850
:102AB0001B680A431A613B685B68062B24D87B6855
:102AC0001B68596B3B685A6813469B001344053BCF
:102AD0001F2202FA03F3DA437B681B680A405A6339
:102AE0007B681B68596B3B681B689BB218463B6848
:102AF0005A6813469B001344053B00FA03F27B68B7
:102B00001B680A435A634CE03B685B680C2B24D873
:102B10007B681B68196B3B685A6813469B0013441B
:102B2000233B1F2202FA03F3DA437B681B680A4047
:102B30001A637B681B68196B3B681B689BB218465D
:102B40003B685A6813469B001344233B00FA03F288
:102B50007B681B680A431A6323E07B681B68D96A99
:102B60003B685A6813469B001344413B1F2202FAFC
:102B700003F3DA437B681B680A40DA627B681B68F0
:102B8000D96A3B681B689BB218463B685A68134673
:102B90009B001344413B00FA03F27B681B680A4325
:102BA000DA62224BFB607B681B68214A934209D1A1
:102BB0003B681B68122B05D1FB685B6843F48002FD
:102BC000FB685A607B681B68194A934223D13B68B3
:102BD0001B68102B03D03B681B68112B1BD1FB68B3
:102BE0005B6843F40002FB685A603B681B68102B6B
:102BF00011D1104B1B68104AA2FB03239A0C1346F9
:102C00009B0013445B00BB6002E0BB68013BBB6000
:102C1000BB68002BF9D17B68002283F83C2000239D
:102C200018461437BD465DF8047B70470023014009
:102C3000002001400400002083DE1B4380B485B0E7
:102C400000AF7860794BFB60FB685B6823F440322F
:102C5000FB685A60FB685A687B685B681A43FB68CC
:102C60005A607B681B685A687B681B6822F4807214
:102C70005A607B681B6859687B681B691A027B680D
:102C80001B680A435A607B681B685A687B681B682C
:102C900022F040725A607B681B6859687B689A68AA
:102CA0007B681B680A435A607B681B689A687B686C
:102CB0001B6822F400629A607B681B6899687B68D5
:102CC000DA687B681B680A439A607B689B6A584A8B
:102CD000934222D07B681B689A687B681B6822F04D
:102CE00070629A607B681B6899687B689A6A7B68E7
:102CF0001B680A439A607B681B689A687B681B683C
:102D000022F040529A607B681B6899687B68DA6A97
:102D10007B681B680A439A600FE07B681B689A68AF
:102D20007B681B6822F070629A607B681B689A68F7
:102D30007B681B6822F040529A607B681B689A6827
:102D40007B681B6822F002029A607B681B689968A6
:102D50007B681B7E5A007B681B680A439A607B680D
:102D600093F82030002B1BD07B681B685A687B6867
:102D70001B6842F400625A607B681B685A687B6873
:102D80001B6822F460425A607B681B6859687B6844
:102D90005B6A013B5A037B681B680A435A6007E081
:102DA0007B681B685A687B681B6822F400625A6063
:102DB0007B681B68DA6A7B681B6822F47002DA623F
:102DC0007B681B68D96A7B68DB69013B1A057B68F5
:102DD0001B680A43DA627B681B689A687B681B6819
:102DE00022F400729A607B681B6899687B6893F88C
:102DF00030305A027B681B680A439A607B681B6804
:102E00009A687B681B6822F480629A607B681B6802
:102E100099687B685B699A027B681B680A439A60C1
:102E200000BF1437BD465DF8047B704700230140A6
:102E30000100000F80B584B000AF78607B689B6BA9
:102E4000FB60FB681B6C03F05003002B3CD1FB685C
:102E50001B6C43F40072FB681A64FB681B689B6878
:102E600003F04053002B2BD1FB681B7E002B27D196
:102E7000FB681B68DB6A03F47003002B06D0FB6859
:102E80001B689B6803F48063002B19D1FB681B68E7
:102E90005A68FB681B6822F020025A60FB681B6CB2
:102EA00023F48072FB681A64FB681B6C03F4805384
:102EB000002B05D1FB681B6C43F00102FB681A6410
:102EC000F868FEF7A7F80EE0FB681B6C03F0100330
:102ED000002B03D0F868FFF785FD04E0FB689B6BCF
:102EE000DB6C7868984700BF1037BD4680BD80B561
:102EF00084B000AF78607B689B6BFB60F868FFF77D
:102F000067FD00BF1037BD4680BD80B584B000AFFF
:102F100078607B689B6BFB60FB6840221A64FB68EF
:102F20005B6C43F00402FB685A64F868FFF75AFDD3
:102F300000BF1037BD4680BD80B485B000AF78605B
:102F40007B6803F00703FB600C4BDB68BB60BA686F
:102F50004FF6FF031340BB60FB681A02BB681343C4
:102F600043F0BF6343F40033BB60044ABB68D360E3
:102F700000BF1437BD465DF8047B704700ED00E0EC
:102F800080B400AF044BDB681B0A03F0070318464C
:102F9000BD465DF8047B704700ED00E080B483B06F
:102FA00000AF0346FB7197F90730002B0BDBFB7971
:102FB00003F01F02074997F907305B09012000FA67
:102FC00002F241F8232000BF0C37BD465DF8047BB8
:102FD000704700BF00E100E080B483B000AF03465B
:102FE0003960FB7197F90730002B0ADB3B68DAB2D6
:102FF0000C4997F907301201D2B20B4483F8002331
:103000000AE03B68DAB20849FB7903F00F03043B9E
:103010001201D2B20B441A7600BF0C37BD465DF8E0
:10302000047B704700E100E000ED00E080B489B06F
:1030300000AFF860B9607A60FB6803F00703FB61DA
:10304000FB69C3F10703042B28BF0423BB61FB69A1
:103050000433062B02D9FB69033B00E000237B61AC
:103060004FF0FF32BB6902FA03F3DA43BB681A4040
:103070007B699A404FF0FF317B6901FA03F3D94332
:103080007B680B40134318462437BD465DF8047B2C
:10309000704780B582B000AF78607868FFF74CFF6A
:1030A00000BF0837BD4680BD80B586B000AF03467F
:1030B000B9607A60FB7300237B61FFF761FF786181
:1030C0007A68B9687869FFF7B1FF024697F90F305F
:1030D00011461846FFF780FF00BF1837BD4680BD78
:1030E00080B582B000AF0346FB7197F907301846F0
:1030F000FFF754FF00BF0837BD4680BD80B586B0DE
:1031000000AF786000237B61FFF7DEFA38617B68EF
:10311000002B01D1012399E07B68022283F835203E
:103120007B68002283F834207B681B681A687B6800
:103130001B6822F001021A600FE0FFF7C5FA024691
:103140003B69D31A052B08D97B6820225A657B6816
:10315000032283F83520032378E07B681B681B6813
:1031600003F00103002BE8D17B681B681B687B61BF
:103170007A69384B13407B617B685A687B689B682F
:103180001A437B68DB681A437B681B691A437B68B8
:103190005B691A437B689B691A437B68DB691A4346
:1031A0007B681B6A13437A6913437B617B685B6AA4
:1031B000042B07D17B68DA6A7B681B6B13437A693F
:1031C00013437B617B681B687A691A607B681B68A4
:1031D0005B697B617B6923F007037B617B685B6ACA
:1031E0007A6913437B617B685B6A042B17D17B6828
:1031F0009B6A7A6913437B617B68DB6A002B0ED084
:10320000786800F001FB0346002B08D07B68402261
:103210005A657B68012283F83520012316E07B681C
:103220001B687A695A61786800F0B8FA0346FB6057
:103230007B68DB6D3F229A40FB689A607B680022C6
:103240005A657B68012283F8352000231846183719
:10325000BD4680BD3F8010F080B586B000AFF860FD
:10326000B9607A603B600023FB75FB689B6D3B6136
:10327000FB6893F83430012B01D1022340E0FB6856
:10328000012283F83420FB6893F83530DBB2012B40
:103290002FD1FB68022283F83520FB6800225A6593
:1032A0003B687A68B968F86800F04AFAFB68DB6D39
:1032B0003F229A403B699A60FB681B681A68FB686A
:1032C0001B6842F016021A60FB681B6C002B07D0CB
:1032D000FB681B681A68FB681B6842F008021A60EA
:1032E000FB681B681A68FB681B6842F001021A60E1
:1032F00005E0FB68002283F834200223FB75FB7D88
:1033000018461837BD4680BD80B584B000AF7860E0
:103310007B689B6DFB60FFF7D7F9B8607B6893F81B
:103320003530DBB2022B08D07B6880225A657B687F
:10333000002283F83420012352E07B681B681A685E
:103340007B681B6822F016021A607B681B685A694A
:103350007B681B6822F080025A617B681B6C002B23
:1033600003D17B689B6C002B07D07B681B681A68B5
:103370007B681B6822F008021A607B681B681A6869
:103380007B681B6822F001021A6013E0FFF79CF9CA
:103390000246BB68D31A052B0CD97B6820225A65DC
:1033A0007B68032283F835207B68002283F8342071
:1033B000032315E07B681B681B6803F00103002BE7
:1033C000E4D17B68DB6D3F229A40FB689A607B68A2
:1033D000012283F835207B68002283F83420002303
:1033E00018461037BD4680BD80B483B000AF78600A
:1033F0007B6893F83530DBB2022B04D07B688022E7
:103400005A6501230CE07B68052283F835207B6830
:103410001B681A687B681B6822F001021A6000238F
:1034200018460C37BD465DF8047B704780B586B002
:1034300000AF78600023BB60924B1B68924AA2FBEE
:1034400003239B0A7B617B689B6D3B613B691B6827
:10345000FB607B68DB6D08229A40FB681340002B01
:103460001AD07B681B681B6803F00403002B13D081
:103470007B681B681A687B681B6822F004021A606C
:103480007B68DB6D08229A403B699A607B685B6DC4
:1034900043F001027B685A657B68DB6D01229A402C
:1034A000FB681340002B12D07B681B685B6903F03C
:1034B0008003002B0BD07B68DB6D01229A403B69B7
:1034C0009A607B685B6D43F002027B685A657B689B
:1034D000DB6D04229A40FB681340002B12D07B68FE
:1034E0001B681B6803F00203002B0BD07B68DB6DAD
:1034F00004229A403B699A607B685B6D43F004024A
:103500007B685A657B68DB6D10229A40FB6813402C
:10351000002B43D07B681B681B6803F00803002B5B
:103520003CD07B68DB6D10229A403B699A607B68D7
:103530001B681B6803F48023002B18D07B681B6872
:103540001B6803F40023002B08D17B681B6C002B45
:1035500024D07B681B6C786898471FE07B689B6C65
:10356000002B1BD07B689B6C7868984716E07B68C3
:103570001B681B6803F48073002B07D17B681B68F2
:103580001A687B681B6822F008021A607B681B6C53
:10359000002B03D07B681B6C786898477B68DB6DD9
:1035A00020229A40FB681340002B00F08E807B683D
:1035B0001B681B6803F01003002B00F086807B68FB
:1035C000DB6D20229A403B699A607B6893F8353026
:1035D000DBB2052B36D17B681B681A687B681B68D9
:1035E00022F016021A607B681B685A697B681B68A8
:1035F00022F080025A617B681B6C002B03D17B6830
:103600009B6C002B07D07B681B681A687B681B6863
:1036100022F008021A607B68DB6D3F229A403B690A
:103620009A607B68012283F835207B68002283F84A
:1036300034207B681B6D002B7DD07B681B6D786808
:10364000984778E07B681B681B6803F48023002B95
:103650001CD07B681B681B6803F40023002B08D177
:103660007B685B6C002B30D07B685B6C786898471C
:103670002BE07B68DB6B002B27D07B68DB6B7868EB
:10368000984722E004000020B5814E1B7B681B6830
:103690001B6803F48073002B0FD17B681B681A68CA
:1036A0007B681B6822F010021A607B68012283F895
:1036B00035207B68002283F834207B68DB6B002B8D
:1036C00003D07B68DB6B786898477B685B6D002B69
:1036D00032D07B685B6D03F00103002B22D07B6846
:1036E000052283F835207B681B681A687B681B6895
:1036F00022F001021A60BB680133BB607A699A420A
:1037000007D37B681B681B6803F00103002BF2D111
:1037100000E000BF7B68012283F835207B6800222F
:1037200083F834207B68DB6C002B05D07B68DB6C76
:103730007868984700E000BF1837BD4680BD00BFDD
:1037400080B485B000AFF860B9607A603B60FB6818
:103750001B681A68FB681B6822F480221A60FB68E9
:103760001B683A685A60FB689B68402B08D1FB686D
:103770001B687A689A60FB681B68BA68DA6007E0C1
:10378000FB681B68BA689A60FB681B687A68DA6035
:1037900000BF1437BD465DF8047B704780B485B028
:1037A00000AF78607B681B68DBB2103B144AA2FB59
:1037B00003231B09FB60134AFB6813441B781A465A
:1037C0007B68DA65FB68032B09D97B681B6823F4E7
:1037D0007F7323F003031A1D7B689A6507E07B68FB
:1037E0001B6823F47F7323F003037A6893657B6877
:1037F0009B6D18461437BD465DF8047B704700BFCB
:10380000ABAAAAAA8CC1010880B485B000AF7860C9
:103810000023FB737B689B6ABB607B689B69002B02
:103820001FD1BB68032B56D801A252F823F000BF6A
:10383000413800085338000841380008D7380008DC
:103840007B68DB6A03F08073002B46D00123FB7397
:1038500043E07B68DB6AB3F1C07F40D10123FB7397
:103860003DE07B689B69B3F5005F21D1BB68032B0A
:1038700037D801A252F823F0893800088F380008A1
:1038800089380008A13800080123FB7330E07B6809
:10389000DB6A03F08073002B25D00123FB7322E049
:1038A0007B68DB6AB3F1C07F1FD10123FB731CE08F
:1038B000BB68022B03D9BB68032B03D018E001239C
:1038C000FB7315E07B68DB6A03F08073002B0ED07E
:1038D0000123FB730BE000BF0AE000BF08E000BF5C
:1038E00006E000BF04E000BF02E000BF00E000BF50
:1038F000FB7B18461437BD465DF8047B704700BF5C
:1039000080B489B000AF7860396000237B61002308
:103910003B610023BB610023FB616BE10122FB697A
:1039200002FA03F37B613B681B687A6913403B61D1
:103930003A697B699A4240F05A813B685B6803F0C0
:103940000303012B05D03B685B6803F00303022BE4
:1039500030D17B689B68BB61FB695B00032202FA84
:1039600003F3DB43BA691340BB613B68DA68FB6968
:103970005B0002FA03F3BA691343BB617B68BA695F
:103980009A607B685B68BB610122FB6902FA03F302
:10399000DB43BA691340BB613B685B681B0903F0FA
:1039A0000102FB6902FA03F3BA691343BB617B6846
:1039B000BA695A603B685B6803F00303032B17D0B6
:1039C0007B68DB68BB61FB695B00032202FA03F3DF
:1039D000DB43BA691340BB613B689A68FB695B00D3
:1039E00002FA03F3BA691343BB617B68BA69DA6010
:1039F0003B685B6803F00303022B23D1FB69DA0801
:103A00007B68083253F82230BB61FB6903F007037F
:103A10009B000F2202FA03F3DB43BA691340BB6138
:103A20003B681A69FB6903F007039B0002FA03F382
:103A3000BA691343BB61FB69DA087B680832B9696C
:103A400043F822107B681B68BB61FB695B000322A3
:103A500002FA03F3DB43BA691340BB613B685B685E
:103A600003F00302FB695B0002FA03F3BA69134334
:103A7000BB617B68BA691A603B685B6803F44033DA
:103A8000002B00F0B4800023FB60604B5B6C5F4A4E
:103A900043F4804353645D4B5B6C03F48043FB60F1
:103AA000FB685B4AFB699B08023352F82330BB6119
:103AB000FB6903F003039B000F2202FA03F3DB43CD
:103AC000BA691340BB617B68524A93422BD07B6832
:103AD000514A934225D07B68504A93421FD07B685D
:103AE0004F4A934219D07B684E4A934213D07B6869
:103AF0004D4A93420DD07B684C4A934207D07B6875
:103B00004B4A934201D107230EE008230CE0062321
:103B10000AE0052308E0042306E0032304E002236F
:103B200002E0012300E00023FA6902F003029200A0
:103B30009340BA691343BB613549FB699B08023363
:103B4000BA6941F823203B4B9B68BB613B69DB436F
:103B5000BA691340BB613B685B6803F48013002BB8
:103B600003D0BA693B691343BB61324ABB699360B6
:103B7000304BDB68BB613B69DB43BA691340BB6117
:103B80003B685B6803F40013002B03D0BA693B6900
:103B90001343BB61274ABB69D360264B5B68BB619B
:103BA0003B69DB43BA691340BB613B685B6803F464
:103BB0000033002B03D0BA693B691343BB611D4A34
:103BC000BB6953601B4B1B68BB613B69DB43BA6934
:103BD0001340BB613B685B6803F48033002B03D068
:103BE000BA693B691343BB61124ABB691360FB6945
:103BF0000133FB61FB690F2B7FF690AE00BF00BF66
:103C00002437BD465DF8047B704700BF0038024092
:103C10000038014000000240000402400008024059
:103C2000000C024000100240001402400018024044
:103C3000001C0240003C014080B487B000AF7860B7
:103C4000396000233B610023FB600023BB6000233D
:103C50007B61CDE001227B6902FA03F33B613A68A4
:103C60003B691340FB60FA683B699A4240F0BD80B3
:103C7000654A7B699B08023352F82330BB607B693D
:103C800003F003039B000F2202FA03F3BA68134008
:103C9000BB607B685D4A93422BD07B685C4A934251
:103CA00025D07B685B4A93421FD07B685A4A934277
:103CB00019D07B68594A934213D07B68584A934283
:103CC0000DD07B68574A934207D07B68564A93428F
:103CD00001D107230EE008230CE006230AE00523A8
:103CE00008E0042306E0032304E0022302E00123AA
:103CF00000E000237A6902F0030292009340BA6860
:103D00009A4232D1494B1A68FB68DB43474913405A
:103D10000B60464B5A68FB68DB43444913404B60D9
:103D2000424BDA68FB68DB4340491340CB603F4BB2
:103D30009A68FB68DB433D4913408B607B6903F065
:103D400003039B000F2202FA03F3BB602E4A7B6938
:103D50009B08023352F82310BB68DA432A487B6978
:103D60009B080A40023340F823207B681A687B696D
:103D70005B00032101FA03F3DB431A407B681A60FE
:103D80007B69DA087B68083253F822107B6903F0FC
:103D900007039B000F2202FA03F3DB437A69D20880
:103DA00019407B68083243F822107B68DA687B6927
:103DB0005B00032101FA03F3DB431A407B68DA60FE
:103DC0007B685A6801217B6901FA03F3DB431A40DF
:103DD0007B685A607B689A687B695B00032101FA03
:103DE00003F3DB431A407B689A607B6901337B6194
:103DF0007B690F2B7FF62EAF00BF00BF1C37BD467F
:103E00005DF8047B704700BF0038014000000240AD
:103E10000004024000080240000C02400010024072
:103E20000014024000180240001C0240003C014007
:103E300080B485B000AF78600B467B807B681A69E0
:103E40007B881340002B02D00123FB7301E0002389
:103E5000FB73FB7B18461437BD465DF8047B704747
:103E600080B483B000AF78600B467B8013467B70D4
:103E70007B78002B03D07A887B689A6103E07B888B
:103E80001A047B689A6100BF0C37BD465DF8047B5D
:103E9000704780B485B000AF78600B467B807B684C
:103EA0005B69FB607A88FB6813401A04FB68D9439E
:103EB0007B880B401A437B689A6100BF1437BD466C
:103EC0005DF8047B7047000080B584B000AF786077
:103ED0007B68002B01D101232BE17B6893F83D30F7
:103EE000DBB2002B06D17B68002283F83C20786887
:103EF000FEF71AF87B68242283F83D207B681B6854
:103F00001A687B681B6822F001021A607B681B68D4
:103F10001A687B681B6842F400421A607B681B6861
:103F20001A687B681B6822F400421A6001F004FCE6
:103F3000F8607B685B68814A934207D8FB68804AD7
:103F4000934294BF01230023DBB206E0FB687D4A65
:103F5000934294BF01230023DBB2002B01D0012345
:103F6000E7E0FB68784AA2FB03239B0CBB607B68FD
:103F70001B685B6823F03F017B681B68BA680A43D3
:103F80005A607B681B681B6A23F03F017B685B6893
:103F90006A4A934202D8BB68013309E0BB684FF418
:103FA000967202FB03F3694AA2FB03239B090133C8
:103FB0007A6812680B4313627B681B68DB6923F421
:103FC0004F4222F0FF027B685B685C498B4219D844
:103FD000FB68591E7B685B685B00B1FBF3F3591CFF
:103FE00040F6FC730B40002B0AD0FB68591E7B681F
:103FF0005B685B00B1FBF3F30133C3F30B0351E0E8
:1040000004234FE07B689B68002B11D1FB68581E8E
:104010007B6859680B465B000B44B0FBF3F301333C
:10402000C3F30B03002B0CBF01230023DBB212E010
:10403000FB68581E7B6859680B469B000B4499002F
:104040000B44B0FBF3F30133C3F30B03002B0CBFA2
:1040500001230023DBB2002B01D0012322E07B6887
:104060009B68002B0ED1FB68581E7B6859680B4675
:104070005B000B44B0FBF3F30133C3F30B0343F4D6
:1040800000430FE0FB68581E7B6859680B469B0095
:104090000B4499000B44B0FBF3F30133C3F30B0360
:1040A00043F44043796809681343CB617B681B681C
:1040B0001B6823F0C0017B68DA697B681B6A1A43BE
:1040C0007B681B680A431A607B681B689B6823F443
:1040D000034323F0FF037A6811697A68D2681143B9
:1040E0007A6812680B4393607B681B68DB6823F077
:1040F000FF017B685A697B689B691A437B681B6870
:104100000A43DA607B681B681A687B681B6842F0A8
:1041100001021A607B6800221A647B68202283F8FF
:104120003D207B6800221A637B68002283F83E20D2
:10413000002318461037BD4680BD00BFA086010091
:104140007F841E00FF083D0083DE1B43D34D6210B9
:1041500080B582B000AF78607B68002B01D101236D
:1041600021E07B68242283F83D207B681B681A6865
:104170007B681B6822F001021A607868FDF71CFF5B
:104180007B6800221A647B68002283F83D207B68EC
:1041900000221A637B68002283F83E207B6800229D
:1041A00083F83C20002318460837BD4680BD000038
:1041B00080B588B002AFF8607A601A460B467B8102
:1041C00013463B81FEF780FA7861FB6893F83D3037
:1041D000DBB2202B40F0E0807B69009319230122A1
:1041E0007049F86800F058FC0346002B01D0022308
:1041F000D3E0FB6893F83C30012B01D10223CCE0E3
:10420000FB68012283F83C20FB681B681B6803F0F5
:104210000103012B07D0FB681B681A68FB681B6849
:1042200042F001021A60FB681B681A68FB681B6891
:1042300022F400621A60FB68212283F83D20FB68AB
:10424000102283F83E20FB6800221A64FB687A681B
:104250005A62FB683A895A85FB685B8D9AB2FB68A3
:104260001A85FB68504ADA6279897B693A6AF8688C
:1042700000F0C2FA0346002B01D001238DE0002399
:104280003B61FB681B685B693B61FB681B689B6962
:104290003B613B6966E07A69396AF86800F0D2FCF4
:1042A0000346002B0DD0FB681B6C042B07D1FB6869
:1042B0001B681A68FB681B6842F400721A600123CD
:1042C0006BE0FB685B6A1A78FB681B681A61FB6825
:1042D0005B6A5A1CFB685A62FB685B8D9BB2013BB0
:1042E0009AB2FB685A85FB681B8D013B9AB2FB684A
:1042F0001A85FB681B685B6903F00403042B1BD160
:10430000FB681B8D002B17D0FB685B6A1A78FB6873
:104310001B681A61FB685B6A5A1CFB685A62FB687F
:104320005B8D9BB2013B9AB2FB685A85FB681B8D83
:10433000013B9AB2FB681A857A69396AF86800F01D
:10434000C2FC0346002B0DD0FB681B6C042B07D16D
:10435000FB681B681A68FB681B6842F400721A60ED
:1043600001231AE0FB681B8D002B94D1FB681B68AE
:104370001A68FB681B6842F400721A60FB6820220E
:1043800083F83D20FB68002283F83E20FB68002272
:1043900083F83C20002300E0022318461837BD466E
:1043A00080BD00BF020010000000FFFF80B58CB090
:1043B00002AFF8607A601A460B467B8113463B8158
:1043C000FEF782F97862FB6893F83D30DBB2202B70
:1043D00040F00B827B6A0093192301227C49F86824
:1043E00000F05AFB0346002B01D00223FEE1FB68DC
:1043F00093F83C30012B01D10223F7E1FB68012245
:1044000083F83C20FB681B681B6803F00103012B49
:1044100007D0FB681B681A68FB681B6842F0010242
:104420001A60FB681B681A68FB681B6822F400624C
:104430001A60FB68222283F83D20FB68102283F873
:104440003E20FB6800221A64FB687A685A62FB68A7
:104450003A895A85FB685B8D9AB2FB681A85FB68BE
:104460005C4ADA6279897B6A3A6BF86800F046FA4E
:104470000346002B01D00123B8E1FB681B8D002B04
:1044800013D100233B62FB681B685B693B62FB68DE
:104490001B689B693B623B6AFB681B681A68FB6888
:1044A0001B6842F400721A608CE1FB681B8D012BC3
:1044B0001BD1FB681B681A68FB681B6822F48062CA
:1044C0001A600023FB61FB681B685B69FB61FB688A
:1044D0001B689B69FB61FB69FB681B681A68FB68CA
:1044E0001B6842F400721A606CE1FB681B8D022BA2
:1044F0001BD1FB681B681A68FB681B6822F480628A
:104500001A60FB681B681A68FB681B6842F400624B
:104510001A600023BB61FB681B685B69BB61FB68B9
:104520001B689B69BB61BB694CE1FB681B681A682F
:10453000FB681B6842F480621A6000237B61FB68A1
:104540001B685B697B61FB681B689B697B617B699E
:1045500038E1FB681B8D032B00F2F180FB681B8D9B
:10456000012B23D17A6A396BF86800F0EDFB034622
:10457000002B01D0012339E1FB681B681A69FB6835
:104580005B6AD2B21A70FB685B6A5A1CFB685A629B
:10459000FB681B8D013B9AB2FB681A85FB685B8D3B
:1045A0009BB2013B9AB2FB685A850BE1FB681B8DFD
:1045B000022B4ED17B6A00933B6B00220649F868C0
:1045C00000F06AFA0346002B08D001230EE100BF79
:1045D000020010000000FFFF04000100FB681B68E0
:1045E0001A68FB681B6842F400721A60FB681B685B
:1045F0001A69FB685B6AD2B21A70FB685B6A5A1C64
:10460000FB685A62FB681B8D013B9AB2FB681A85F6
:10461000FB685B8D9BB2013B9AB2FB685A85FB68D5
:104620001B681A69FB685B6AD2B21A70FB685B6A26
:104630005A1CFB685A62FB681B8D013B9AB2FB68EF
:104640001A85FB685B8D9BB2013B9AB2FB685A8569
:10465000B8E07B6A00933B6B00226649F86800F083
:104660001BFA0346002B01D00123BFE0FB681B6847
:104670001A68FB681B6822F480621A60FB681B687A
:104680001A69FB685B6AD2B21A70FB685B6A5A1CD3
:10469000FB685A62FB681B8D013B9AB2FB681A8566
:1046A000FB685B8D9BB2013B9AB2FB685A857B6AC3
:1046B00000933B6B00224F49F86800F0EDF9034688
:1046C000002B01D0012391E0FB681B681A68FB688E
:1046D0001B6842F400721A60FB681B681A69FB6869
:1046E0005B6AD2B21A70FB685B6A5A1CFB685A623A
:1046F000FB681B8D013B9AB2FB681A85FB685B8DDA
:104700009BB2013B9AB2FB685A85FB681B681A6929
:10471000FB685B6AD2B21A70FB685B6A5A1CFB6862
:104720005A62FB681B8D013B9AB2FB681A85FB68D5
:104730005B8D9BB2013B9AB2FB685A8542E07A6A74
:10474000396BF86800F000FB0346002B01D0012311
:104750004CE0FB681B681A69FB685B6AD2B21A708E
:10476000FB685B6A5A1CFB685A62FB681B8D013B45
:104770009AB2FB681A85FB685B8D9BB2013B9AB2CB
:10478000FB685A85FB681B685B6903F00403042B14
:1047900018D1FB681B681A69FB685B6AD2B21A7091
:1047A000FB685B6A5A1CFB685A62FB681B8D013B05
:1047B0009AB2FB681A85FB685B8D9BB2013B9AB28B
:1047C000FB685A85FB681B8D002B7FF4C2AEFB682B
:1047D000202283F83D20FB68002283F83E20FB68FE
:1047E000002283F83C20002300E0022318462837EB
:1047F000BD4680BD0400010080B588B002AFF860FE
:104800007A603B600B467B81FB68DB6A7B617B697E
:10481000082B06D07B69012B03D07B6913F5803F01
:1048200008D1FB681B681A68FB681B6842F4807239
:104830001A600BE0FB681B6B122B07D1FB681B682F
:104840001A68FB681B6842F480721A603B68009328
:104850007B6800224FF00111F86800F01DF9034653
:10486000002B0DD0FB681B681B6803F48073B3F545
:10487000807F03D1FB684FF400721A64032335E094
:10488000FB681B69B3F5804F08D17B89DBB21A4600
:10489000FB681B6802F0FE021A611BE07B89DB11DA
:1048A000DBB203F00603DBB263F00F03DAB2FB689E
:1048B0001B681A613B687A680E49F86800F043F992
:1048C0000346002B01D0012310E07B89DAB2FB689C
:1048D0001B681A613B687A680749F86800F033F989
:1048E0000346002B01D0012300E0002318461837AF
:1048F000BD4680BD080001000200010080B588B0FF
:1049000002AFF8607A603B600B467B81FB68DB6A34
:104910007B61FB681B681A68FB681B6842F4806255
:104920001A607B69082B06D07B69012B03D07B6959
:1049300013F5803F08D1FB681B681A68FB681B6889
:1049400042F480721A600BE0FB681B6B112B07D1DD
:10495000FB681B681A68FB681B6842F480721A6067
:104960003B6800937B6800224FF00111F86800F06B
:1049700093F80346002B0DD0FB681B681B6803F4FB
:104980008073B3F5807F03D1FB684FF400721A6423
:10499000032379E0FB681B69B3F5804F08D17B895D
:1049A000DBB243F00103DAB2FB681B681A615FE017
:1049B0007B89DB11DBB203F00603DBB263F00F038C
:1049C000DAB2FB681B681A613B687A683049F8689C
:1049D00000F0B9F80346002B01D0012354E07B8995
:1049E000DAB2FB681B681A613B687A682949F86883
:1049F00000F0A9F80346002B01D0012344E0002376
:104A00003B61FB681B685B693B61FB681B689B69DA
:104A10003B613B69FB681B681A68FB681B6842F4D2
:104A200080721A603B6800937B6800224FF001118E
:104A3000F86800F031F80346002B0DD0FB681B68C6
:104A40001B6803F48073B3F5807F03D1FB684FF4D8
:104A500000721A64032317E07B89DB11DBB203F0D9
:104A60000603DBB263F00E03DAB2FB681B681A615F
:104A70003B687A680749F86800F065F80346002B40
:104A800001D0012300E0002318461837BD4680BD41
:104A9000080001000200010080B584B000AFF8609A
:104AA000B9603B601346FB7125E03B68B3F1FF3F03
:104AB00021D0FDF709FE0246BB69D31A3A689A4233
:104AC00002D33B68002B16D1FB6800221A63FB68F7
:104AD000202283F83D20FB68002283F83E20FB68FB
:104AE0001B6C43F02002FB681A64FB68002283F809
:104AF0003C20012323E0BB681B0CDBB2012B0DD152
:104B0000FB681B685B69DA43BB6813409BB2002BF0
:104B10000CBF01230023DBB21A460CE0FB681B68C4
:104B20009B69DA43BB6813409BB2002B0CBF012387
:104B30000023DBB21A46FB799A42B6D0002318460E
:104B40001037BD4680BD80B584B000AFF860B96055
:104B50007A603B6051E0FB681B685B6903F480632B
:104B6000B3F5806F23D1FB681B681A68FB681B686C
:104B700042F400721A60FB681B686FF480625A612D
:104B8000FB6800221A63FB68202283F83D20FB6843
:104B9000002283F83E20FB681B6C43F00402FB6894
:104BA0001A64FB68002283F83C20012346E07B68FE
:104BB000B3F1FF3F21D0FDF787FD02463B68D31AD2
:104BC0007A689A4202D37B68002B16D1FB680022D8
:104BD0001A63FB68202283F83D20FB68002283F8DB
:104BE0003E20FB681B6C43F02002FB681A64FB68E4
:104BF000002283F83C20012320E0BB681B0CDBB2C1
:104C0000012B0CD1FB681B685B69DA43BB6813405E
:104C10009BB2002B14BF01230023DBB20BE0FB6827
:104C20001B689B69DA43BB6813409BB2002B14BF1F
:104C300001230023DBB2002B8DD10023184610374F
:104C4000BD4680BD80B584B000AFF860B9607A60C1
:104C50002DE0F86800F0CEF80346002B01D00123C8
:104C60002DE0BB68B3F1FF3F21D0FDF72DFD0246DB
:104C70007B68D31ABA689A4202D3BB68002B16D15C
:104C8000FB6800221A63FB68202283F83D20FB6842
:104C9000002283F83E20FB681B6C43F02002FB6877
:104CA0001A64FB68002283F83C20012307E0FB68BC
:104CB0001B685B6903F08003802BCAD10023184670
:104CC0001037BD4680BD80B584B000AFF860B960D4
:104CD0007A602DE0F86800F08DF80346002B01D0D3
:104CE00001232DE0BB68B3F1FF3F21D0FDF7ECFCC1
:104CF00002467B68D31ABA689A4202D3BB68002B7B
:104D000016D1FB6800221A63FB68202283F83D203D
:104D1000FB68002283F83E20FB681B6C43F02002F6
:104D2000FB681A64FB68002283F83C20012307E03B
:104D3000FB681B685B6903F00403042BCAD10023E2
:104D400018461037BD4680BD80B584B000AFF8600E
:104D5000B9607A6042E0FB681B685B6903F010038E
:104D6000102B19D1FB681B686FF010025A61FB68A9
:104D700000221A63FB68202283F83D20FB68002292
:104D800083F83E20FB681A6CFB681A64FB680022FB
:104D900083F83C20012329E0FDF796FC02467B685E
:104DA000D31ABA689A4202D3BB68002B16D1FB68AB
:104DB00000221A63FB68202283F83D20FB68002252
:104DC00083F83E20FB681B6C43F02002FB681A64EA
:104DD000FB68002283F83C20012307E0FB681B6886
:104DE0005B6903F04003402BB5D100231846103710
:104DF000BD4680BD80B483B000AF78607B681B681F
:104E00005B6903F48063B3F5806F1BD17B681B681B
:104E10006FF480625A617B6800221A637B682022EB
:104E200083F83D207B68002283F83E207B681B6C62
:104E300043F004027B681A647B68002283F83C20FC
:104E4000012300E0002318460C37BD465DF8047BC3
:104E5000704780B584B000AF78607B68002B01D1CB
:104E6000012334E07B681B684CF6CC421A607B68F7
:104E70001B6845F255521A607B681B687A68526855
:104E80005A607B681B687A6892689A60FDF71CFC20
:104E9000F8600FE0FDF718FC0246FB68D31A312BCF
:104EA00008D97B681B68DB6803F00303002B01D083
:104EB00003230CE07B681B68DB6803F00303002B13
:104EC000E8D17B681B684AF6AA221A6000231846BC
:104ED0001037BD4680BD80B483B000AF78607B687A
:104EE0001B684AF6AA221A60002318460C37BD46F2
:104EF0005DF8047B7047000080B586B000AF786035
:104F00007B68002B01D1012364E27B681B6803F0FE
:104F10000103002B75D0A34B9B6803F00C03042BFB
:104F20000CD0A04B9B6803F00C03082B12D19D4BB7
:104F30005B6803F48003B3F5800F0BD1994B1B68BA
:104F400003F40033002B5BD07B685B68002B57D1E8
:104F500001233FE27B685B68B3F5803F06D1914B4C
:104F60001B68904A43F4803313601DE07B685B68E4
:104F7000B3F5A02F0CD18B4B1B688A4A43F48023D6
:104F80001360884B1B68874A43F4803313600BE03F
:104F9000844B1B68834A23F480331360814B1B6866
:104FA000804A23F4802313607B685B68002B13D056
:104FB000FDF78AFB386108E0FDF786FB02463B6996
:104FC000D31A642B01D9032304E2764B1B6803F444
:104FD0000033002BF0D014E0FDF776FB386108E0D9
:104FE000FDF772FB02463B69D31A642B01D90323F8
:104FF000F0E16C4B1B6803F40033002BF0D100E0B0
:1050000000BF7B681B6803F00203002B63D0654B75
:105010009B6803F00C03002B0BD0624B9B6803F0E2
:105020000C03082B1CD15F4B5B6803F48003002B3F
:1050300016D15C4B1B6803F00203002B05D07B6884
:10504000DB68012B01D00123C4E1564B1B6823F020
:10505000F8027B681B69DB00524913430B603AE09E
:105060007B68DB68002B20D04F4B01221A60FDF7D4
:105070002BFB386108E0FDF727FB02463B69D31A9A
:10508000022B01D90323A5E1464B1B6803F0020361
:10509000002BF0D0434B1B6823F0F8027B681B69A0
:1050A000DB00404913430B6015E03F4B00221A60C0
:1050B000FDF70AFB386108E0FDF706FB02463B6995
:1050C000D31A022B01D9032384E1364B1B6803F06A
:1050D0000203002BF0D17B681B6803F00803002B50
:1050E00030D07B685B69002B16D0304B01221A60F0
:1050F000FDF7EAFA386108E0FDF7E6FA02463B6997
:10510000D31A022B01D9032364E1264B5B6F03F012
:105110000203002BF0D015E0244B00221A60FDF7AB
:10512000D3FA386108E0FDF7CFFA02463B69D31A9B
:10513000022B01D903234DE11A4B5B6F03F00203ED
:10514000002BF0D17B681B6803F00403002B00F0F8
:10515000A0800023FB75134B1B6C03F08053002BC6
:105160000FD10023BB600F4B1B6C0E4A43F08053E2
:1051700013640C4B1B6C03F08053BB60BB680123B2
:10518000FB750B4B1B6803F48073002B21D1084B7C
:105190001B68074A43F480731360FDF795FA386182
:1051A00011E000BF0038024000004742800E474235
:1051B00000700040FDF788FA02463B69D31A022BC3
:1051C00001D9032306E1854B1B6803F48073002B90
:1051D000F0D07B689B68012B06D1814B1B6F804A06
:1051E00043F0010313671CE07B689B68052B0CD11F
:1051F0007B4B1B6F7A4A43F004031367784B1B6F9A
:10520000774A43F0010313670BE0754B1B6F744A39
:1052100023F001031367724B1B6F714A23F00403E1
:1052200013677B689B68002B15D0FDF74DFA38613A
:105230000AE0FDF749FA02463B69D31A41F2883287
:10524000934201D90323C5E0654B1B6F03F00203B2
:10525000002BEED014E0FDF737FA38610AE0FDF7D5
:1052600033FA02463B69D31A41F28832934201D99C
:105270000323AFE05A4B1B6F03F00203002BEED168
:10528000FB7D012B05D1564B1B6C554A23F08053F7
:1052900013647B689B69002B00F09B80504B9B68DC
:1052A00003F00C03082B5CD07B689B69022B41D177
:1052B0004C4B00221A60FDF707FA386108E0FDF751
:1052C00003FA02463B69D31A022B01D9032381E07A
:1052D000434B1B6803F00073002BF0D17B68DA6945
:1052E0007B681B6A1A437B685B6A9B011A437B6875
:1052F0009B6A5B08013B1B041A437B68DB6A1B0645
:10530000374913434B60374B01221A60FDF7DCF934
:10531000386108E0FDF7D8F902463B69D31A022B41
:1053200001D9032356E02E4B1B6803F00073002BBA
:10533000F0D04EE02B4B00221A60FDF7C5F9386122
:1053400008E0FDF7C1F902463B69D31A022B01D9E7
:1053500003233FE0224B1B6803F00073002BF0D1C6
:1053600037E07B689B69012B01D1012332E01C4BA4
:105370005B68FB607B689B69012B28D0FB6803F4AA
:1053800080027B68DB699A4221D1FB6803F03F020F
:105390007B681B6A9A421AD1FA6847F6C0731340B9
:1053A0007A68526A9201934211D1FB6803F4403249
:1053B0007B689B6A5B08013B1B049A4207D1FB6830
:1053C00003F070627B68DB6A1B069A4201D00123FE
:1053D00000E0002318461837BD4680BD007000402D
:1053E000003802406000474280B584B000AF78606A
:1053F00039607B68002B01D10123CCE0684B1B682E
:1054000003F007033A689A420CD9654B3A68D2B266
:105410001A70634B1B6803F007033A689A4201D085
:105420000123B8E07B681B6803F00203002B20D047
:105430007B681B6803F00403002B05D0594B9B6865
:10544000584A43F4E05393607B681B6803F00803F9
:10545000002B05D0534B9B68524A43F46043936042
:10546000504B9B6823F0F0027B689B684D491343C7
:105470008B607B681B6803F00103002B44D07B68C2
:105480005B68012B07D1474B1B6803F40033002BEB
:1054900019D101237FE07B685B68022B03D07B6816
:1054A0005B68032B07D13F4B1B6803F00073002B95
:1054B00009D101236FE03B4B1B6803F00203002B73
:1054C00001D1012367E0374B9B6823F003027B681F
:1054D0005B68344913438B60FDF7F6F8F8600AE027
:1054E000FDF7F2F80246FB68D31A41F28832934284
:1054F00001D903234FE02B4B9B6803F00C027B6820
:105500005B689B009A42EBD1254B1B6803F00703B5
:105510003A689A420CD2224B3A68D2B21A70204BA7
:105520001B6803F007033A689A4201D0012332E076
:105530007B681B6803F00403002B08D0194B9B68A1
:1055400023F4E0527B68DB68164913438B607B6869
:105550001B6803F00803002B09D0124B9B6823F44F
:1055600060427B681B69DB000E4913438B6000F0CF
:1055700021F802460B4B9B681B0903F00F030A49F5
:10558000CB5C22FA03F3094A1360094B1B681846E7
:10559000FCF728FF002318461037BD4680BD00BF2A
:1055A000003C02400038024074C1010804000020A1
:1055B00008000020B0B584B000AF00217960002160
:1055C000F960002139600021B9605249896801F011
:1055D0000C0108290DD0082900F29480002902D07E
:1055E000042903D08EE04C4BBB608EE04B4BBB607C
:1055F0008BE04849496801F03F01796045494968B5
:1056000001F48001002924D04249496889090846EB
:105610004FF0000140F2FF144FF0000500EA0402D1
:1056200001EA05033D4901FB03F0002101FB02F102
:1056300044183A49A2FB0101631819467B681A46CF
:105640004FF00003FBF788FA02460B461346FB6057
:105650004AE0304B5B689B091A464FF0000340F26A
:10566000FF104FF0000102EA000403EA01052046A2
:1056700029464FF000024FF000034B0143EAD0638C
:10568000420110461946001B61EB05014FF0000274
:105690004FF000038B0143EA90638201121A63EB1F
:1056A00001034FF000004FF00001D90041EA5271B0
:1056B000D00002460B46121945EB03034FF00000E1
:1056C0004FF00001990241EA9251900202460B46C6
:1056D000104619467B681A464FF00003FBF73CFA68
:1056E00002460B461346FB600A4B5B681B0C03F03B
:1056F000030301335B003B60FA683B68B2FBF3F3E2
:10570000BB6002E0044BBB6000BFBB6818461037AB
:10571000BD46B0BD003802400024F40040787D0151
:1057200080B400AF034B1B681846BD465DF8047B90
:10573000704700BF0400002080B500AFFFF7F0FF06
:105740000246054B9B689B0A03F007030349CB5CA9
:1057500022FA03F3184680BD0038024084C10108D4
:1057600080B500AFFFF7DCFF0246054B9B685B0B83
:1057700003F007030349CB5C22FA03F3184680BD0C
:105780000038024084C1010880B483B000AF786063
:1057900039607B680F221A60124B9B6803F003028A
:1057A0007B685A600F4B9B6803F0F0027B689A603D
:1057B0000C4B9B6803F4E0527B68DA60094B9B68F2
:1057C000DB0803F4E0527B681A61074B1B6803F0A7
:1057D00007023B681A6000BF0C37BD465DF8047BCA
:1057E000704700BF00380240003C024080B586B0E0
:1057F00000AF786000237B6100233B617B681B68FE
:1058000003F00103002B05D17B681B6803F0040340
:10581000002B35D0624B00221A60FCF755FF7861EF
:1058200008E0FCF751FF02467B69D31A022B01D92D
:105830000323B0E05B4B1B6803F00063002BF0D147
:105840007B685B689A017B689B681B07554913431B
:10585000C1F88430524B01221A60FCF735FF7861A1
:1058600008E0FCF731FF02467B69D31A022B01D90D
:10587000032390E04B4B1B6803F00063002BF0D038
:105880007B681B6803F00203002B00F08380002379
:10589000FB60444B1B6C434A43F080531364414B01
:1058A0001B6C03F08053FB60FB683F4B1B683E4A58
:1058B00043F480731360FCF707FF786108E0FCF79E
:1058C00003FF02467B69D31A022B01D9032362E04E
:1058D000354B1B6803F48073002BF0D0314B1B6FEA
:1058E00003F440733B613B69002B2FD07B68DB687E
:1058F00003F440733A699A4228D02A4B1B6F23F471
:1059000040733B61294B01221A60284B00221A6028
:10591000244A3B691367234B1B6F03F00103012BE0
:1059200014D1FCF7D1FE78610AE0FCF7CDFE024607
:105930007B69D31A41F28832934201D903232AE0CA
:10594000184B1B6F03F00203002BEED07B68DB6863
:1059500003F44073B3F5407F0DD1124B9B6823F4E1
:10596000F8127B68DB6823F0704323F440730D4921
:1059700013438B6005E00B4B9B680A4A23F4F81332
:105980009360084B1A6F7B68DB68C3F30B03054910
:1059900013430B67002318461837BD4680BD00BF70
:1059A000680047420038024000700040400E474205
:1059B00080B584B000AF78600123FB737B68002B57
:1059C00001D1012366E07B685B7FDBB2002B05D150
:1059D0007B6800221A777868FCF712FB7B6802224A
:1059E0005A777B681B68CA225A627B681B685322FD
:1059F0005A62786800F045FA0346FB73FB7B002B84
:105A00002CD17B681B689B687A68126823F4E003DA
:105A100023F0400393607B681B6899687B685A6831
:105A20007B681B691A437B685B691A437B681B6848
:105A30000A439A607B681B687A68D2681A617B683F
:105A40001B6819697B689B681A047B681B680A439A
:105A50001A61786800F04CFA0346FB73FB7B002B5D
:105A600013D17B681B681A6C7B681B6822F4802248
:105A70001A647B681B68196C7B689A697B681B6871
:105A80000A431A647B6801225A777B681B68FF22ED
:105A90005A62FB7B18461037BD4680BD90B587B073
:105AA00000AFF860B9607A6000237B61FB681B7F00
:105AB000012B01D1022387E0FB6801221A77FB68E2
:105AC00002225A777B68002B26D1FB681B689B68F3
:105AD00003F04003002B02D1BB680022DA70BB68E0
